:020000040800F2
:10000000885F002499030008F9F9000871C300080B
:1000100009F90008E10A0008E92B010800000000C6
:10002000000000000000000000000000E1070108DF
:10003000211C00080000000031010108510A0108DC
:10004000B7030008B7030008B7030008B7030008A8
:10005000B7030008B7030008B7030008B703000898
:10006000B7030008B7030008B7030008F910000839
:100070000911000819110008B7030008B7030008A8
:10008000B7030008B7030008B7030008711C000895
:10009000911C0008811C0008A11C0008B70300087F
:1000A000B7030008B7030008B7030008B703000848
:1000B000B10C0108B7030008B7030008B703000834
:1000C000B7030008B7030008B7030008B703000828
:1000D000F1050108B7030008B7030008B7030008DB
:1000E000291C0008B703000800000000B70300083F
:1000F000B7030008B7030008B7030008B7030008F8
:10010000B7030008B7030008D10C0108B7030008C3
:10011000B703000879160108B7030008B703000801
:10012000B7030008B7030008B7030008B7030008C7
:10013000B7030008B7030008B7030008B11C0008A4
:1001400000000000000000000000000000000000AF
:10015000B7030008B7030008B7030008B703000897
:10016000B7030008B7030008B7030008B703000887
:10017000B7030008B7030008B70300080000000039
:10018000B7030008B7030008B7030008B703000867
:10019000B7030008B7030008B7030008B703000857
:1001A000B7030008B7030008B70300080000000009
:1001B000B7030008B7030008B7030008B703000837
:1001C000B7030008B70300080000000000000000AB
:1001D0000000000000000000B7030008000000005D
:1001E000000000000000000000000000000000000F
:1001F0000000000000000000B7030008B70300087B
:10020000B7030008B703000800000000B7030008A8
:10021000B7030008B7030008B7030008B7030008D6
:10022000B703000800000000B7030008000000004A
:10023000B7030008B703000800000000B703000878
:10024000B7030008B7030008B7030008B7030008A6
:10025000B7030008B7030008B7030008B703000896
:10026000B7030008B7030008B7030008B703000886
:10027000B7030008B7030008B70300080000000038
:10028000B7030008B7030008B7030008B703000866
:1002900000000000B7030008B703000800000000DA
:1002A00000000000B7030008B7030008B703000808
:1002B000B7030008B7030008B7030008B703000836
:1002C000B7030008B7030008B703000800F002F8FE
:1002D00000F052F814A696E8000CB244B344DA4594
:1002E00001D100F049F8BAE80F000FA696E83000F7
:1002F000A5EB040504EB0607AAEB0704A7F1010729
:100300004FEA15154FEA3414A4F10104AC4201D3AD
:1003100000F032F813F0010F18BFFB1A43F001038D
:1003200000F001F8DBE71847C8960100E8960100E5
:10033000103A24BF78C878C1FAD8520724BF30C811
:1003400030C144BF04680C60704700007047000073
:100350000023002400250026103A28BF78C1FBD8CE
:10036000520728BF30C148BF0B6070471FB518F057
:100370002EFD1FBD10B510BD00F089F91146FFF725
:10038000F5FF14F021F800F0A7F903B4FFF7F2FF2E
:1003900003BC00F0ABF900000A4880470A488047D8
:1003A0000A480047FEE7FEE7FEE7FEE7FEE7FEE756
:1003B000FEE7FEE7FEE7FEE705480649064A074B6B
:1003C00070470000491C0008490B0108CD020008D5
:1003D00088590024885F0024885B0024885B0024FF
:1003E00053EA020C00F069802DE9F04B4FF0000653
:1003F000002B1FBFB3FA83F503FA05F424FA05F6C0
:100400005E4012BF1643B2FA82F502FA05F4C5F156
:1004100020051EBF22FA05FC44EA0C04203556EAEA
:10042000044C4FEA144418BF641C4FF000084FF00E
:100430000009904271EB030C39D3002919BFB1FABE
:1004400081F701FA07F6B0FA80F700FA07F6C7F16C
:1004500020071EBF20FA07FC46EA0C062037B6FB31
:10046000F4FCA7EB0507103F07F01F0BCBF12006AC
:100470002CFA06F60CFA0BFB44BFB3460026202FDD
:10048000A4BF5E464FF0000B5BEA060C08BF4FF0BE
:10049000010B19EB0B0948EB0608ABFB027C06FBD2
:1004A00002CC0BFB03CCC01B71EB0C01C1E70B466C
:1004B000024641464846BDE8F08B13B5084318BFD5
:1004C0004FF0FF300146AFF30080BDE81C4070479D
:1004D000032A40F2308010F0030C00F0158011F870
:1004E000013BBCF1020F624498BF11F801CB00F848
:1004F000013B38BF11F8013BA2F1040298BF00F89C
:1005000001CB38BF00F8013B11F0030300F0258058
:10051000083AC0F0088051F8043B083A51F804CB7F
:10052000A0E80810F5E7121D5CBF51F8043B40F845
:10053000043BAFF30080D20724BF11F8013B11F850
:1005400001CB48BF11F8012B24BF00F8013B00F894
:1005500001CB48BF00F8012B704710B5203AC0F01E
:100560000B80B1E81850A0E81850B1E81850A0E886
:100570001850203ABFF4F5AF5FEA027C24BFB1E81F
:100580001850A0E8185044BF18C918C0BDE8104062
:100590005FEA827C24BF51F8043B40F8043B08BF6B
:1005A0007047D20728BF31F8023B48BF11F8012B32
:1005B00028BF20F8023B48BF00F8012B704702F02B
:1005C000FF0343EA032242EA024200F024B84FF05C
:1005D00000020429C0F0128010F0030C00F01B8010
:1005E000CCF1040CBCF1020F18BF00F8012BA8BF1E
:1005F00020F8022BA1EB0C0100F00DB85FEAC17CE2
:1006000024BF00F8012B00F8012B48BF00F8012B94
:1006100070474FF0000200B51346944696462039C5
:1006200022BFA0E80C50A0E80C50B1F12001BFF4AB
:10063000F7AF090728BFA0E80C5048BF0CC05DF811
:1006400004EB890028BF40F8042B08BF704748BF5F
:1006500020F8022B11F0804F18BF00F8012B7047D3
:1006600070477047704710B500F00CF8006810BD77
:1006700010B5044600F006F8046010BD004870474D
:10068000E000002400487047E000002470477546F1
:10069000FFF7F4FFAE4605006946534620F0070019
:1006A000854618B020B5FFF787FEBDE820404FF023
:1006B00000064FF000074FF000084FF0000BAC466B
:1006C000ACE8C009ACE8C009ACE8C009ACE8C009B6
:1006D00021F007018D46704710B50446AFF3008046
:1006E0002046BDE81040FFF750BE00000149182029
:1006F000ABBEFEE72600020080B540F60000C5F65E
:1007000002000122114606F07FFB80BD00000000C0
:1007100080B540F60000C5F602000121002206F077
:1007200073FB80BD00000000704700000000000067
:1007300080B540F60000C5F602000821012206F04F
:1007400063FB80BD0000000080B540F60000C5F6E8
:1007500002000821002206F057FB80BD00000000C7
:10076000704700000000000080B582B0ADF80600C0
:10077000FFE7BDF80600411EADF8061028B1FFE7FF
:100780004FF47A7000F004F8F3E702B080BD000087
:1007900086B0ADF8160000200490039002900190FE
:1007A00000904EF21400CEF2000000680090BDF8F8
:1007B0001600C0EB0010400104904EF21800CEF27B
:1007C000000000680390FFE74EF21800CEF2000030
:1007D000006802900298039988421ED0FFE70298B1
:1007E0000399884207D2FFE703980299411A0198BA
:1007F0000844019008E000980299401A03990144C6
:10080000019808440190FFE7029803900198049929
:10081000884201D3FFE701E0FFE7D5E706B0704764
:1008200080B582B000208DF80700FFF77DFFFFF74D
:1008300097FF13F0CDF901469DF8070008438DF8A6
:10084000070013F08DFA01469DF8070008438DF864
:1008500007009DF8070002B080BD00000000000006
:1008600080B588B007900691059200200090049012
:100870000390FFF74DFF922000F00AF9122003A920
:100880000191062200F0CCF8FFF736FF9DF80C002E
:100890009DF80D1040EA0120ADF80A00BDF90A00EC
:1008A00000EE100AB8EEC00A40F20000C2F20040AA
:1008B00090ED001A20EE010A069981ED000A9DF8DC
:1008C0000E109DF80F2041EA0221ADF80A10BDF983
:1008D0000A1000EE101AB8EEC00A90ED001A20EED1
:1008E000010A069981ED010A9DF810109DF811206A
:1008F00041EA0221ADF80A10BDF90A1000EE101A03
:10090000B8EEC00A90ED001A20EE010A069880EDBC
:10091000020AFFF719FF00980199082200F080F8F9
:10092000FFF706FF9DF80C000F2844D1FFE79DF864
:100930000E009DF80F1040EA0120ADF80A00BDF945
:100940000A0000EE100AB8EEC00A40F20400C2F23B
:10095000004090ED001A20EE010A079981ED000A8F
:100960009DF810109DF8112041EA0221ADF80A10FF
:10097000BDF90A1000EE101AB8EEC00A90ED001A88
:1009800020EE010A079981ED010A9DF812109DF8E9
:10099000132041EA0221ADF80A10BDF90A1000EE59
:1009A000101AB8EEC00A90ED001A20EE010A07985E
:1009B00080ED020AFFE7FFF7ABFEA22000F068F827
:1009C000222003A9022200F02BF8FFF795FE9DF8E4
:1009D0000C009DF80D10C00040EA5110ADF80A005F
:1009E000BDF90A00B0F5806F07DBFFE7BDF80A002C
:1009F000A0F50060ADF80A00FFE7BDF90A0000EEBF
:100A0000100AB8EEC01AB4EE002AB3EE070AA1EE3F
:100A1000020A059880ED000A08B080BD00000000C1
:100A200080B584B08DF80F0002918DF807209DF8F5
:100A30000F0040F0800000F02BF8FFE79DF8070062
:100A400070B1FFE7552000F023F802990870029872
:100A5000013002909DF8070001388DF80700EDE79E
:100A600004B080BD0000000080B582B08DF80700A2
:100A700000919DF8070040F0800000F009F8552033
:100A800000F006F80099087002B080BD0000000078
:100A900080B582B08DF8070069464FF47A7008601F
:100AA00040F68850C2F200400DF107010DF1060238
:100AB000012309F02DFB9DF8060002B080BD000067
:100AC00080B582B08DF807008DF806109DF80700FC
:100AD000FFF7DEFF9DF80600FFF7DAFF02B080BDEA
:100AE000FFE7FEE70000000080B582B00190022021
:100AF00001214FF0FF3213F0D3FDFFE713F050FD5B
:100B000040F24011C2F2004108604FF0FF3013F094
:100B100003FDF3E70000000080B59AB0199040F69D
:100B20004440C2F2004001F093FA41F27B40C3F628
:100B30002E60169045F62940C3F68F50179000217D
:100B40000491189140F6C000C2F2004003902C308E
:100B500016AA9FED6F0A8DED050ADFED6E0ACDED49
:100B6000060A0FF0CDF8039804999DED050ADDED16
:100B7000060A4CF6CD42C3F6CC5213924CF6CD4247
:100B8000C3F64C52029214921591A43013AA0FF09E
:100B9000B7F8039804999DED050ADDED060A4CF2BD
:100BA0008F22C3F6F55210921191129100F58E70BA
:100BB00010AA0FF0A5F8029A039804999DED050A72
:100BC000DDED060A4DF20A73C3F6A3530D930E92A0
:100BD0000F9200F5CA700DAA0FF092F840F2505033
:100BE000C2F2004000F098F9022001214FF0FF32DC
:100BF00013F056FDFFE713F0D3FC40F24411C2F2AC
:100C000000410191086013F0CBFC0146019840F6C9
:100C1000AC22C2F20042116000788007002861D542
:100C2000FFE713F099F940F24410C2F20040007857
:100C30008006002836D5FFE740F69C70C2F20040DF
:100C400090ED000AB3EE0E1A20EE010AB7EEC00ACC
:100C50009FED2B2B30EE020BB7EEC00B8DED0A0A89
:100C600090ED010A20EE010AB7EEC00A9FED261BA7
:100C700030EE010BB7EEC00B8DED0B0A90ED020AC2
:100C80009FED261A20EE010A8DED0C0A40F6C001F8
:100C9000C2F2004140F68C02C2F200420AA800F003
:100CA0005FF81EE040F24410C2F200400078C00637
:100CB000002815D5FFE740F69C70C2F2004001689D
:100CC00007914068089040F25050C2F2004090ED09
:100CD000780A9FED111A20EE010A8DED090AFFE74F
:100CE000FFE702E013F0D0F9FFE76FF0004013F0E8
:100CF00013FC012013F09CFB7DE700BF00BF00BF89
:100D0000A1D634EF3845B7BF6B48DC63E943973F62
:100D100000401C46000048449A99993F0000484210
:100D200081B0009040F2F820C2F2004090ED000B3C
:100D30009FED091B30EE010BB7EEC00B009880ED64
:100D4000000A009900204860009988600099C860F6
:100D500001B0704700BF00BF00000060B81E09C0AE
:100D600080B586B00590049103920598006840F61E
:100D7000B421C2F20041086000208DF80B00FFE7AB
:100D80009DF80B0003281ADCFFE704989DF80B1070
:100D9000C1EB011200EBC20090ED020BB7EEC00BED
:100DA00041F28450C2F2004000EB810080ED000A65
:100DB000FFE79DF80B0001308DF80B00E0E741F2F2
:100DC0008450C2F2004041F27851C2F200410091D9
:100DD00013F006F90099086840F6B022C2F200420A
:100DE000106004982C3091ED000A0599D1ED000AAD
:100DF0000EF03EFE009940F66400C2F20040019001
:100E000080ED000A0498A43091ED010A0599D1ED16
:100E1000010A0EF02DFE0099019880ED010A049858
:100E200000F58E7091ED020A0599D1ED020A0EF0DF
:100E30001FFE019880ED020A90ED000AD0ED010A34
:100E400090ED021A40F67000C2F2004000F078F80F
:100E500000208DF80A00FFE79DF80A0003284DDC0A
:100E6000FFE79DF80A2040F67000C2F2004000EB58
:100E7000820090ED000AB1EE081A80EE010A9FEDA3
:100E8000251A20EE010ABDEEC00A10EE101A40F637
:100E90008000C2F2004020F812109DF80A1030F9CC
:100EA0001100B0F5804F0BDDFFE79DF80A2040F6FA
:100EB0008001C2F200414FF4804021F81200FFE7A8
:100EC0009DF80A1040F68000C2F2004030F911008F
:100ED00010F5804F0BDAFFE79DF80A2040F68001FD
:100EE000C2F200414FF4404021F81200FFE7FFE753
:100EF0009DF80A0001308DF80A00ADE703980499C7
:100F0000496A40F68002C2F200420EF001FD06B0CE
:100F100080BD00BF0000804680B582B0019013F014
:100F200027F813F031F8019800F5F070FFF7F8FE9C
:100F3000019800F5F87000F093F802B080BD000051
:100F400084B08DED030ACDED020A8DED011A0090FB
:100F50009DED030AB7EEC00A9DED021AB7EEC11A65
:100F60009FED375B21EE051BA0EE051B9DED010AF1
:100F70009FED393A20EE030AB7EEC00A30EE010BBE
:100F80009FED311B80EE010BB7EEC00B009880ED9A
:100F9000030A9DED030AB7EEC02A9DED020AB7EEE3
:100FA000C00A9FED2B4B20EE040BA2EE050B9DED2E
:100FB000012A22EE032AB7EEC22A30EE020B80EE9F
:100FC000010BB7EEC00B009880ED020A9DED030AFD
:100FD000B7EEC00A9DED022AB7EEC22A22EE052B1B
:100FE000A0EE042B9DED010A20EE030AB7EEC00A25
:100FF00030EE020B80EE010BB7EEC00B009880EDD7
:10100000010A9DED030AB7EEC02A9DED020AB7EE74
:10101000C00A20EE040BA2EE040B9DED012A22EE85
:10102000032AB7EEC22A30EE020B80EE010BB7EEB8
:10103000C00B009880ED000A009804B0704700BF14
:101040001B0DE02D90A0E6BF000000A09999B93FCC
:101050001B0DE02D90A0E63F6666E63E0000000016
:1010600080B582B001900198DFED181ACDED001A1D
:10107000B0EE610AF0EE610AB0EE611A0EF080FE89
:10108000DDED001A01981030B0EE610AF0EE610A51
:10109000B0EE611A0EF074FEDDED001A01982030FA
:1010A000B0EE610AF0EE610AB0EE611A0EF068FE71
:1010B000DDED001A01983030B0EE610AF0EE610A01
:1010C000B0EE611A0EF05CFE02B080BD00000000C0
:1010D00084B00390029101928DF803300298039935
:1010E00008629DF80300039981F82800019803998C
:1010F000486204B07047000080B540F6CC30C2F2C0
:10110000004002F015F980BD80B540F65430C2F2BF
:10111000004002F00DF980BD80B540F6DC20C2F23F
:10112000004002F005F980BD83B00290029801688A
:1011300001201022C4F202029142009000F0A3802C
:10114000FFE70298016801202822C4F202029142BE
:10115000009000F09880FFE702980168012040228B
:10116000C4F202029142009000F08D80FFE70298E5
:10117000016801205822C4F202029142009000F05E
:101180008280FFE70298016801207022C4F2020207
:101190009142009077D0FFE70298016801208822F1
:1011A000C4F20202914200906DD0FFE702980168FC
:1011B0000120A022C4F202029142009063D0FFE716
:1011C000029801680120B822C4F202029142009004
:1011D00059D0FFE702980168012040F21042C4F2A2
:1011E0000202914200904ED0FFE702980168012070
:1011F00040F22842C4F202029142009043D0FFE73D
:1012000002980168012040F24042C4F20202914279
:10121000009038D0FFE702980168012040F2584260
:10122000C4F20202914200902DD0FFE702980168BB
:10123000012040F27042C4F202029142009022D09A
:10124000FFE702980168012040F28842C4F20202DE
:101250009142009017D0FFE702980168012040F208
:10126000A042C4F20202914200900CD0FFE7029823
:1012700000684FF64831CBF6FD710844B0FA80F0B3
:1012800040090090FFE70098C00740B3FFE70298CD
:10129000007810384AF6AB21CAF6AA21A0FB01104B
:1012A00000090190019800F0070148F69C70C0F613
:1012B0000100405C0299C8650198042807D3FFE744
:1012C00002990868042262F30900886506E0029921
:1012D000086840F2FF3290438865FFE705E0029915
:1012E000086820F0FF008865FFE70298806D03B072
:1012F000704700000000000084B00390039800686D
:10130000019003980168012045F20842C5F60202E7
:10131000914200904ED0FFE703980168012045F20A
:101320001C42C5F602029142009043D0FFE70398A9
:101330000168012045F23042C5F602029142009058
:1013400038D0FFE703980168012045F24442C5F612
:101350000202914200902DD0FFE70398016801201E
:1013600045F25842C5F602029142009022D0FFE7B2
:1013700003980168012045F26C42C5F602029142D1
:10138000009017D0FFE703980168012045F28042E2
:10139000C5F60202914200900CD0FFE70398006866
:1013A0004AF66C31CAF2FD710844B0FA80F0400987
:1013B0000090FFE70098C00710B3FFE7039800789C
:1013C00008384CF6CD41CCF6CC41A0FB0110000909
:1013D0000290029945F60000C5F6020000EB81007C
:1013E00003990866039945F68000C5F60200486631
:1013F000029800F01F01012088400399886635E0BB
:101400000398007810384AF6AB21CAF6AA21A0FB4F
:10141000011000090290019840F2B841C4F20201A3
:1014200088420CD8FFE7019840F21041C4F2020153
:10143000884204D3FFE7029808300290FFE7029940
:1014400040F60000C4F2020000EB81000399086638
:10145000039940F68000C4F202004866029800F04A
:101460001F010120884003998866FFE704B0704798
:1014700083B002900298007901900198002800F052
:101480008A80FFE70198082800F28580FFE702982C
:101490000168012045F20842C5F60202914200901F
:1014A0004ED0FFE702980168012045F21C42C5F6C4
:1014B00002029142009043D0FFE7029801680120A8
:1014C00045F23042C5F602029142009038D0FFE763
:1014D00002980168012045F24442C5F60202914299
:1014E00000902DD0FFE702980168012045F2584294
:1014F000C5F602029142009022D0FFE702980168EF
:10150000012045F26C42C5F602029142009017D0CC
:10151000FFE702980168012045F28042C5F6020209
:10152000914200900CD0FFE7029800684AF66C31B7
:10153000CAF2FD710844B0FA80F040090090FFE75C
:101540000098C00780B1FFE7019945F6FC00C5F699
:10155000020000EB81000299C866029945F640102E
:10156000C5F6020008670FE0019940F6FC00C4F2DE
:10157000020000EB81000299C866029940F6401013
:10158000C4F202000867FFE70198411E012088406D
:1015900002994867FFE703B07047000000000000B1
:1015A00085B0049000208DF80F000498806918BB66
:1015B000FFE70498806A029003281BD80299DFE8AD
:1015C00001F0020D0218049890F82F00C00720B116
:1015D000FFE701208DF80F00FFE70CE00498C06AD8
:1015E000B0F1C07F04D1FFE701208DF80F00FFE7C5
:1015F00001E000E0FFE747E004988069B0F5005F94
:1016000026D1FFE70498806A019003281ED801992B
:10161000DFE801F00206021101208DF80F0016E04C
:10162000049890F82F00C00720B1FFE701208DF843
:101630000F00FFE70BE00498C06AB0F1C07F04D14F
:10164000FFE701208DF80F00FFE700E0FFE71AE059
:101650000498806A0090032804D3FFE700980328C9
:1016600004D00EE001208DF80F000BE0049890F8F4
:101670002F00C00720B1FFE701208DF80F00FFE722
:1016800000E0FFE7FFE7FFE79DF80F0005B07047B8
:1016900089B008900791069205930898806D049090
:1016A0000898806D03900898016801201022C4F208
:1016B00002029142029000F00381FFE7089801685E
:1016C00001202822C4F202029142029000F0F88028
:1016D000FFE70898016801204022C4F2020291420B
:1016E000029000F0ED80FFE7089801680120582281
:1016F000C4F202029142029000F0E280FFE70898F3
:10170000016801207022C4F202029142029000F0AE
:10171000D780FFE70898016801208822C4F20202FE
:101720009142029000F0CC80FFE708980168012008
:10173000A022C4F202029142029000F0C180FFE7B1
:10174000089801680120B822C4F202029142029076
:1017500000F0B680FFE708980168012040F21042CF
:10176000C4F202029142029000F0AA80FFE70898BA
:101770000168012040F22842C4F202029142029024
:1017800000F09E80FFE708980168012040F2404287
:10179000C4F202029142029000F09280FFE70898A2
:1017A0000168012040F25842C4F2020291420290C4
:1017B00000F08680FFE708980168012040F270423F
:1017C000C4F20202914202907AD0FFE708980168C1
:1017D000012040F28842C4F20202914202906FD08E
:1017E000FFE708980168012040F2A042C4F202021B
:1017F0009142029064D0FFE708980168012040F20E
:10180000B842C4F202029142029059D0FFE7089810
:101810000168012045F20842C5F602029142029099
:101820004ED0FFE708980168012045F21C42C5F63A
:1018300002029142029043D0FFE70898016801201C
:1018400045F23042C5F602029142029038D0FFE7DD
:1018500008980168012045F24442C5F6020291420F
:1018600002902DD0FFE708980168012045F2584208
:10187000C5F602029142029022D0FFE70898016863
:10188000012045F26C42C5F602029142029017D047
:10189000FFE708980168012045F28042C5F6020280
:1018A000914202900CD0FFE7089800684AF66C312C
:1018B000CAF2FD710844B0FA80F040090290FFE7D7
:1018C0000298C00770B1FFE70898416E806E4860CB
:1018D0000898C06E28B1FFE70898016F406F486014
:1018E000FFE7FFE70898016801201022C4F2020216
:1018F0009142019000F0A380FFE708980168012061
:101900002822C4F202029142019000F09880FFE781
:101910000898016801204022C4F20202914201901D
:1019200000F08D80FFE70898016801205822C4F27A
:1019300002029142019000F08280FFE7089801685E
:1019400001207022C4F202029142019077D0FFE799
:101950000898016801208822C4F202029142019095
:101960006DD0FFE7089801680120A022C4F20202AE
:101970009142019063D0FFE7089801680120B822E6
:10198000C4F202029142019059D0FFE70898016821
:10199000012040F21042C4F20202914201904ED066
:1019A000FFE708980168012040F22842C4F20202D1
:1019B0009142019043D0FFE708980168012040F26E
:1019C0004042C4F202029142019038D0FFE70898E9
:1019D0000168012040F25842C4F202029142019093
:1019E0002DD0FFE708980168012040F27042C4F250
:1019F00002029142019022D0FFE70898016801207D
:101A000040F28842C4F202029142019017D0FFE7EF
:101A100008980168012040F2A042C4F202029142FB
:101A200001900CD0FFE7089800684FF64831CBF6DC
:101A3000FD710844B0FA80F040090190FFE7019879
:101A4000C00750B3FFE70898C06D00F01F013F20AA
:101A500088400499886008980168086820F480200C
:101A600008600598089909684860089880684028C7
:101A700009D1FFE7069808990968886007980899CE
:101A80000968C86008E0079808990968886006989E
:101A900008990968C860FFE782E00898016801209A
:101AA00045F20842C5F60202914200904ED0FFE78F
:101AB00008980168012045F21C42C5F602029142D5
:101AC000009043D0FFE708980168012045F23042BA
:101AD000C5F602029142009038D0FFE708980168ED
:101AE000012045F24442C5F60202914200902DD0F9
:101AF000FFE708980168012045F25842C5F6020246
:101B00009142009022D0FFE708980168012045F239
:101B10006C42C5F602029142009017D0FFE7089888
:101B20000168012045F28042C5F602029142009010
:101B30000CD0FFE7089800684AF66C31CAF2FD71D4
:101B40000844B0FA80F040090090FFE70098C00711
:101B500020B3FFE70898C06D00F01F010120884006
:101B60000399486005980899096848600898806852
:101B7000402809D1FFE70698089909688860079806
:101B800008990968C86008E007980899096888609A
:101B9000069808990968C860FFE700E0FFE7FFE7DB
:101BA00009B070470000000040F24811C2F2004145
:101BB0000888A0F5806000EE100AB8EEC00A9FED1C
:101BC000161A80EE010A40F69C70C2F2004080EDC9
:101BD000000A4A88A2F5806200EE102AB8EEC00A18
:101BE00080EE010A80ED010A8A88A2F5806200EE8B
:101BF000102AB8EEC00A80EE010A80ED020AC988F8
:101C0000A1F5806100EE101AB8EEC00A80EE010A5C
:101C100080ED030A704700BF0000A54400000000EB
:101C2000704700000000000080B54FF4806004F0B1
:101C3000EFFE4FF4805004F0EBFE80BD000000008A
:101C400072B6FFE7FEE7000044F60C01C5F602019C
:101C5000086840F002000860FFE744F60400C5F69B
:101C6000020000688004002801D4FFE7F5E7704710
:101C700080B540F64440C2F2004003F0B1FF80BDA1
:101C800080B540F64440C2F2004003F0A9FF80BD99
:101C900080B540F6E440C2F2004003F0A1FF80BDF1
:101CA00080B540F6E440C2F2004003F099FF80BDE9
:101CB00080B540F64440C2F2004003F091FF40F688
:101CC000E440C2F2004003F08BFF80BD0000000042
:101CD00084B002900298406B009002980068D0F89F
:101CE00084004FF6FC718843009940EA8100029914
:101CF0000968C1F8840002980068D0F8840020F4D4
:101D00007F00029A1168926B40EA0240C1F8840099
:101D10000298816B00980844009002980068D0F8FF
:101D200088006FF38F00009940EA810002990968EA
:101D3000C1F8880002980068D0F8880020F4FE00FE
:101D4000029A1168D26B40EA0240C1F888000298FA
:101D5000C16B009800EB4100009002980068D0F839
:101D6000A0006FF38F00009940EA81000299096892
:101D7000C1F8A00002980068D0F8A00020F4FE008E
:101D8000029A1168126C40EA0240C1F8A000029960
:101D9000086C496C009A00FB0120009002980068D2
:101DA000D0F8B0006FF38F00009940EA81000299EB
:101DB0000968C1F8B00002980068D0F8B00020F4BB
:101DC000FE00029A1168926C40EA0240C1F8B0002D
:101DD0000299886CC96C009A00FB0120009002985F
:101DE0000068D0F8AC006FF38F00009940EA8100E2
:101DF00002990968C1F8AC000299086D496D009A12
:101E000000FB0120009002980068D0F8F0006FF30A
:101E10008F00009940EA810002990968C1F8F0003A
:101E200002980068D0F8F00020F47C10029A116843
:101E3000926D40EA0240C1F8F0000298816D00986E
:101E400000EB4100009002980068D0F8C0006FF3EA
:101E50008F00009940EA810002990968C1F8C0002A
:101E600002980068D0F8C00020F47C10029A116833
:101E7000D26D40EA0240C1F8C00002980068D0F874
:101E8000C00020F07C50029A1168126E40EA026095
:101E9000C1F8C00002994A6B4AF60040C4F2000043
:101EA00000EB8200C86602998A6BC86E00EB820064
:101EB00008670299CA6B086F00EBC2004867029975
:101EC0000A6C4B6C486F5A4300EB8200886702999A
:101ED0008A6CCB6C886F5A4300EB8200C86702990A
:101EE0000A6D4B6DC86F5A4300EB8200C1F8800049
:101EF00002998A6DD1F8800000EBC200C1F884001D
:101F00000299CA6D8B6ED1F884005A4300EB8200AF
:101F1000C1F8880002990A6E8B6ED1F888005A4386
:101F200000EB8200C1F890000298D0F890004DF2CA
:101F3000FD31C4F2000188420FD3FFE70299D1F8C6
:101F40009C0040F02000C1F89C000299032081F819
:101F5000980001208DF80F0017E00298C06E0190E4
:101F6000FFE701980299D1F89010884208D2FFE764
:101F7000019900200860FFE7019804300190F0E724
:101F8000FFE700208DF80F00FFE79DF80F0004B079
:101F9000704700000000000088B00790069105928D
:101FA00004930698406848B9FFE70698016882687C
:101FB0000069104340EA8140039009E006980168F7
:101FC000826800691043084340F080400390FFE7B7
:101FD0000698D0F820C0C16842698369C06940EAA8
:101FE0000C601843104340EA014002900798826E4B
:101FF000D0F884000499514300EB810001900398CC
:1020000001990860019804300190029801990860D4
:1020100001980430019000200090FFE70098069995
:10202000CA6848F68C71C0F60101895C88420DD2FD
:10203000FFE705980099405801990860019804301D
:102040000190FFE7009804300090E7E708B0704780
:1020500080B58EB00D90002004900590069002216E
:102060000291079101210391089109900A900D981E
:1020700005A903F061FB029A049B0D9869460B6069
:10208000114603F0E5FB0399049A0D9803F064FAF6
:102090000D9804F03DFC0EB080BD00000000000073
:1020A00080B582B0019000208DF80300FFE79DF815
:1020B00003000A2811DCFFE701990A4652F8280BB1
:1020C000043103F0C9FA08B9FFE706E0FFE79DF81D
:1020D000030001308DF80300E9E702B080BD000085
:1020E00082B0019000910098019908600199002048
:1020F00088600199C860019A0821116101994861BD
:10210000019988610199C861019908620199486241
:1021100002B070470000000082B00190009100986A
:102120000178407840EA012000B200EE100AB8EED3
:10213000C00A9FED291A80EE010AB7EEC01A9FED82
:10214000222B9FED230BA1EE020B019880ED000BDB
:1021500000988178C07840EA012000B200EE100AB1
:10216000B8EEC00A9FED1D1A20EE010A9FED1C1A61
:1021700080EE010AB7EEC00A019880ED020B0098CC
:102180000179407940EA012000B200EE100AB8EE71
:10219000C00A9FED141A20EE010AB7EEC00AB0EE95
:1021A000081B20EE010B019880ED040B009880794C
:1021B000019908760098C07901994876019802B093
:1021C000704700BF00BF00BF1F85EB51B81E19400C
:1021D0001F85EB51B81E09C000F8FF45C3F5C84084
:1021E000000070420000803882B001900091009899
:1021F0000178407840EA012000B200EE100AB8EE03
:10220000C00A9FED291A80EE010AB7EEC01A9FEDB1
:10221000222B9FED230BA1EE020B019880ED000B0A
:1022200000988178C07840EA012000B200EE100AE0
:10223000B8EEC00A9FED1D1A20EE010A9FED1C1A90
:1022400080EE010AB7EEC00A019880ED020B0098FB
:102250000179407940EA012000B200EE100AB8EEA0
:10226000C00A9FED141A20EE010AB0EE081A20EE03
:10227000010AB7EEC00A019880ED040B009880793E
:10228000019908760098C07901994876019802B0C2
:10229000704700BF00BF00BF1F85EB51B81E19403B
:1022A0001F85EB51B81E09C000F8FF45C3F5C840B3
:1022B000000070420000803840F27030C2F20040EE
:1022C00090ED690A7047000040F27030C2F20040A1
:1022D00090ED680A7047000040F27030C2F2004092
:1022E00090ED6A0A7047000080B582B001900198B5
:1022F00090ED000AB7EEC00A16F00EF830EE000BB3
:10230000B7EEC00B02B080BD80B58AB0089004F073
:1023100093FD0490089828B9FFE701208DF8270065
:1023200000F0AABC089890F8350002280ED0FFE70C
:10233000089980204865FFE70899002081F834005B
:10234000FFE701208DF8270000F096BC0898006890
:102350001021C4F20201884200F08180FFE7089852
:1023600000682821C4F20201884278D0FFE708986B
:1023700000684021C4F20201884270D0FFE708984B
:1023800000685821C4F20201884268D0FFE708982B
:1023900000687021C4F20201884260D0FFE708980B
:1023A00000688821C4F20201884258D0FFE70898EB
:1023B0000068A021C4F20201884250D0FFE70898CB
:1023C0000068B821C4F20201884248D0FFE70898AB
:1023D000006840F21041C4F2020188423FD0FFE79A
:1023E0000898006840F22841C4F20201884236D0C1
:1023F000FFE70898006840F24041C4F202018842B9
:102400002DD0FFE70898006840F25841C4F202015D
:10241000884224D0FFE70898006840F27041C4F277
:10242000020188421BD0FFE70898006840F288410B
:10243000C4F20201884212D0FFE70898006840F217
:10244000A041C4F20201884209D0FFE70898006861
:1024500040F2B841C4F20201884207D1FFE7089870
:102460000168086820F00100086006E0089801682B
:10247000086820F001000860FFE708980168012063
:102480001022C4F202029142039000F0A380FFE701
:102490000898016801202822C4F2020291420390A8
:1024A00000F09880FFE70898016801204022C4F2FC
:1024B00002029142039000F08D80FFE708980168C6
:1024C00001205822C4F202029142039000F082805F
:1024D000FFE70898016801207022C4F202029142CD
:1024E000039077D0FFE70898016801208822C4F2A2
:1024F0000202914203906DD0FFE708980168012025
:10250000A022C4F202029142039063D0FFE7089830
:1025100001680120B822C4F202029142039059D00E
:10252000FFE708980168012040F21042C4F202025D
:10253000914203904ED0FFE708980168012040F2D5
:102540002842C4F202029142039043D0FFE7089868
:102550000168012040F24042C4F20202914203901D
:1025600038D0FFE708980168012040F25842C4F2D1
:102570000202914203902DD0FFE7089801680120E4
:1025800040F27042C4F202029142039022D0FFE76F
:1025900008980168012040F28842C4F20202914288
:1025A000039017D0FFE708980168012040F2A0428D
:1025B000C4F20202914203900CD0FFE70898006831
:1025C0004FF64831CBF6FD710844B0FA80F040096F
:1025D0000390FFE70398C00780B1FFE70898016800
:1025E000086820F01E00086008980168486920F01B
:1025F0008000486108980068059009E00898016823
:10260000086820F00E000860089800680590FFE751
:102610000898016801201022C4F20202914202903F
:1026200000F00381FFE70898016801202822C4F226
:1026300002029142029000F0F880FFE708980168DA
:1026400001204022C4F202029142029000F0ED808B
:10265000FFE70898016801205822C4F20202914263
:10266000029000F0E280FFE70898016801207022E4
:10267000C4F202029142029000F0D780FFE708986E
:10268000016801208822C4F202029142029000F007
:10269000CC80FFE7089801680120A022C4F2020262
:1026A0009142029000F0C180FFE708980168012084
:1026B000B822C4F202029142029000F0B680FFE715
:1026C00008980168012040F21042C4F202029142CF
:1026D000029000F0AA80FFE708980168012040F20C
:1026E0002842C4F202029142029000F09E80FFE76D
:1026F00008980168012040F24042C4F2020291426F
:10270000029000F09280FFE708980168012040F2F3
:102710005842C4F202029142029000F08680FFE724
:1027200008980168012040F27042C4F2020291420E
:1027300002907AD0FFE708980168012040F28842B1
:10274000C4F20202914202906FD0FFE7089801683C
:10275000012040F2A042C4F202029142029064D0F1
:10276000FFE708980168012040F2B842C4F2020273
:102770009142029059D0FFE708980168012045F284
:102780000842C5F60202914202904ED0FFE7089837
:102790000168012045F21C42C5F6020291420290F6
:1027A00043D0FFE708980168012045F23042C5F6A2
:1027B00002029142029038D0FFE708980168012098
:1027C00045F24442C5F60202914202902DD0FFE745
:1027D00008980168012045F25842C5F6020291426C
:1027E000029022D0FFE708980168012045F26C4270
:1027F000C5F602029142029017D0FFE708980168DF
:10280000012045F28042C5F60202914202900CD0AE
:10281000FFE7089800684AF66C31CAF2FD71084477
:10282000B0FA80F040090290FFE70298C00738B183
:10283000FFE70898016E086820F480700860FFE7E1
:10284000FFE705980068C007C8B1FFE704F0F4FA95
:102850000499401A062811D3FFE7089920204865FB
:102860000899032081F83500FFE70899002081F8D6
:102870003400FFE701208DF82700FDE1E1E708982B
:10288000016801201022C4F202029142019000F07E
:10289000A380FFE70898016801202822C4F2020201
:1028A0009142019000F09880FFE7089801680120AC
:1028B0004022C4F202029142019000F08D80FFE7B5
:1028C0000898016801205822C4F202029142019046
:1028D00000F08280FFE70898016801207022C4F2AE
:1028E00002029142019077D0FFE708980168012029
:1028F0008822C4F20202914201906DD0FFE708984D
:1029000001680120A022C4F202029142019063D02A
:10291000FFE7089801680120B822C4F20202914240
:10292000019059D0FFE708980168012040F2104259
:10293000C4F20202914201904ED0FFE7089801686C
:10294000012040F22842C4F202029142019043D099
:10295000FFE708980168012040F24042C4F20202F9
:102960009142019038D0FFE708980168012040F2B9
:102970005842C4F20202914201902DD0FFE708981C
:102980000168012040F27042C4F2020291420190BB
:1029900022D0FFE708980168012040F28842C4F283
:1029A00002029142019017D0FFE7089801680120C8
:1029B00040F2A042C4F20202914201900CD0FFE723
:1029C000089800684FF64831CBF6FD710844B0FA1C
:1029D00080F040090190FFE70198C00760B1FFE770
:1029E0000898806D07900898C06D00F01F013F2087
:1029F0008840079988600BE00898806D06900898D9
:102A0000C06D00F01F010120884006994860FFE773
:102A10000898016801201022C4F20202914200903D
:102A200000F00381FFE70898016801202822C4F222
:102A300002029142009000F0F880FFE708980168D8
:102A400001204022C4F202029142009000F0ED8089
:102A5000FFE70898016801205822C4F2020291425F
:102A6000009000F0E280FFE70898016801207022E2
:102A7000C4F202029142009000F0D780FFE708986C
:102A8000016801208822C4F202029142009000F005
:102A9000CC80FFE7089801680120A022C4F202025E
:102AA0009142009000F0C180FFE708980168012082
:102AB000B822C4F202029142009000F0B680FFE713
:102AC00008980168012040F21042C4F202029142CB
:102AD000009000F0AA80FFE708980168012040F20A
:102AE0002842C4F202029142009000F09E80FFE76B
:102AF00008980168012040F24042C4F2020291426B
:102B0000009000F09280FFE708980168012040F2F1
:102B10005842C4F202029142009000F08680FFE722
:102B200008980168012040F27042C4F2020291420A
:102B300000907AD0FFE708980168012040F28842AF
:102B4000C4F20202914200906FD0FFE7089801683A
:102B5000012040F2A042C4F202029142009064D0EF
:102B6000FFE708980168012040F2B842C4F202026F
:102B70009142009059D0FFE708980168012045F282
:102B80000842C5F60202914200904ED0FFE7089835
:102B90000168012045F21C42C5F6020291420090F4
:102BA00043D0FFE708980168012045F23042C5F69E
:102BB00002029142009038D0FFE708980168012096
:102BC00045F24442C5F60202914200902DD0FFE743
:102BD00008980168012045F25842C5F60202914268
:102BE000009022D0FFE708980168012045F26C426E
:102BF000C5F602029142009017D0FFE708980168DD
:102C0000012045F28042C5F60202914200900CD0AC
:102C1000FFE7089800684AF66C31CAF2FD71084473
:102C2000B0FA80F040090090FFE70098C007A0B11B
:102C3000FFE70898416E806E48600898C06E58B1F2
:102C4000FFE70898C16E086820F480700860089853
:102C5000016F406F4860FFE7FFE70899012081F8A6
:102C60003500FFE70899002081F83400FFE7FFE70F
:102C700000208DF82700FFE79DF827000AB080BDEF
:102C800080B586B00490049820B9FFE701208DF844
:102C9000170046E3049890F83500022807D0FFE7B4
:102CA00004998020486501208DF8170039E30498C5
:102CB000016801201022C4F202029142029000F049
:102CC000A380FFE70498016801202822C4F20202D1
:102CD0009142029000F09880FFE70498016801207B
:102CE0004022C4F202029142029000F08D80FFE780
:102CF0000498016801205822C4F202029142029015
:102D000000F08280FFE70498016801207022C4F27D
:102D100002029142029077D0FFE7049801680120F7
:102D20008822C4F20202914202906DD0FFE704981B
:102D300001680120A022C4F202029142029063D0F5
:102D4000FFE7049801680120B822C4F20202914210
:102D5000029059D0FFE704980168012040F2104228
:102D6000C4F20202914202904ED0FFE7049801683B
:102D7000012040F22842C4F202029142029043D064
:102D8000FFE704980168012040F24042C4F20202C9
:102D90009142029038D0FFE704980168012040F288
:102DA0005842C4F20202914202902DD0FFE70498EB
:102DB0000168012040F27042C4F202029142029086
:102DC00022D0FFE704980168012040F28842C4F253
:102DD00002029142029017D0FFE704980168012097
:102DE00040F2A042C4F20202914202900CD0FFE7EE
:102DF000049800684FF64831CBF6FD710844B0FAEC
:102E000080F040090290FFE70298C007002800F018
:102E10009D80FFE70499042081F83500049800683C
:102E20001021C4F20201884200F08180FFE704987B
:102E300000682821C4F20201884278D0FFE7049894
:102E400000684021C4F20201884270D0FFE7049874
:102E500000685821C4F20201884268D0FFE7049854
:102E600000687021C4F20201884260D0FFE7049834
:102E700000688821C4F20201884258D0FFE7049814
:102E80000068A021C4F20201884250D0FFE70498F4
:102E90000068B821C4F20201884248D0FFE70498D4
:102EA000006840F21041C4F2020188423FD0FFE7BF
:102EB0000498006840F22841C4F20201884236D0EA
:102EC000FFE70498006840F24041C4F202018842E2
:102ED0002DD0FFE70498006840F25841C4F2020187
:102EE000884224D0FFE70498006840F27041C4F2A1
:102EF000020188421BD0FFE70498006840F2884135
:102F0000C4F20201884212D0FFE70498006840F240
:102F1000A041C4F20201884209D0FFE7049800688A
:102F200040F2B841C4F20201884207D1FFE7049899
:102F30000168086820F00100086006E00498016854
:102F4000086820F001000860FFE7E5E104980068E8
:102F50001021C4F20201884200F08180FFE704984A
:102F600000682821C4F20201884278D0FFE7049863
:102F700000684021C4F20201884270D0FFE7049843
:102F800000685821C4F20201884268D0FFE7049823
:102F900000687021C4F20201884260D0FFE7049803
:102FA00000688821C4F20201884258D0FFE70498E3
:102FB0000068A021C4F20201884250D0FFE70498C3
:102FC0000068B821C4F20201884248D0FFE70498A3
:102FD000006840F21041C4F2020188423FD0FFE78E
:102FE0000498006840F22841C4F20201884236D0B9
:102FF000FFE70498006840F24041C4F202018842B1
:103000002DD0FFE70498006840F25841C4F2020155
:10301000884224D0FFE70498006840F27041C4F26F
:10302000020188421BD0FFE70498006840F2884103
:10303000C4F20201884212D0FFE70498006840F20F
:10304000A041C4F20201884209D0FFE70498006859
:1030500040F2B841C4F20201884207D1FFE7049868
:103060000168086820F00100086006E00498016823
:10307000086820F001000860FFE70498016808680C
:1030800020F00E0008600498016801201022C4F2AC
:1030900002029142019000F00381FFE70498016869
:1030A00001202822C4F202029142019000F0F8802F
:1030B000FFE70498016801204022C4F20202914215
:1030C000019000F0ED80FFE704980168012058228C
:1030D000C4F202029142019000F0E280FFE70498FE
:1030E000016801207022C4F202029142019000F0B6
:1030F000D780FFE70498016801208822C4F2020209
:103100009142019000F0CC80FFE704980168012013
:10311000A022C4F202029142019000F0C180FFE7B8
:10312000049801680120B822C4F202029142019081
:1031300000F0B680FFE704980168012040F21042D9
:10314000C4F202029142019000F0AA80FFE70498C5
:103150000168012040F22842C4F20202914201902B
:1031600000F09E80FFE704980168012040F2404291
:10317000C4F202029142019000F09280FFE70498AD
:103180000168012040F25842C4F2020291420190CB
:1031900000F08680FFE704980168012040F2704249
:1031A000C4F20202914201907AD0FFE704980168CC
:1031B000012040F28842C4F20202914201906FD095
:1031C000FFE704980168012040F2A042C4F2020225
:1031D0009142019064D0FFE704980168012040F219
:1031E000B842C4F202029142019059D0FFE704981C
:1031F0000168012045F20842C5F6020291420190A1
:103200004ED0FFE704980168012045F21C42C5F644
:1032100002029142019043D0FFE704980168012027
:1032200045F23042C5F602029142019038D0FFE7E4
:1032300004980168012045F24442C5F60202914219
:1032400001902DD0FFE704980168012045F2584213
:10325000C5F602029142019022D0FFE7049801686E
:10326000012045F26C42C5F602029142019017D04E
:10327000FFE704980168012045F28042C5F602028A
:10328000914201900CD0FFE7049800684AF66C3137
:10329000CAF2FD710844B0FA80F040090190FFE7DE
:1032A0000198C00728B3FFE70498016E086820F46E
:1032B000807008600498806D03900498C06D00F0E1
:1032C0001F0101208840039948600498416E806E78
:1032D00048600498C06E58B1FFE70498C16E086852
:1032E00020F4807008600498016F406F4860FFE729
:1032F000FFE70499012081F83500FFE704990020D9
:1033000081F83400FFE70498006D20B1FFE70498CE
:10331000016D8847FFE7FFE7FFE700208DF8170002
:10332000FFE79DF8170006B080BD00000000000018
:1033300080B590B00F9000200B9040F29800C2F240
:103340000040006848F2B511C1F64E31A0FB0110F3
:10335000800A0A900F98806D09900F98806D0890F0
:10336000099800680E90089800680D900F98016801
:1033700001201022C4F202029142079000F0A380C3
:10338000FFE70F98016801202822C4F2020291424F
:10339000079000F09880FFE70F9801680120402215
:1033A000C4F202029142079000F08D80FFE70F986F
:1033B000016801205822C4F202029142079000F0F5
:1033C0008280FFE70F98016801207022C4F2020298
:1033D0009142079077D0FFE70F980168012088227B
:1033E000C4F20202914207906DD0FFE70F98016886
:1033F0000120A022C4F202029142079063D0FFE7AD
:103400000F9801680120B822C4F20202914207908D
:1034100059D0FFE70F980168012040F21042C4F232
:103420000202914207904ED0FFE70F9801680120F9
:1034300040F22842C4F202029142079043D0FFE7D3
:103440000F980168012040F24042C4F2020291420A
:10345000079038D0FFE70F980168012040F25842EA
:10346000C4F20202914207902DD0FFE70F98016845
:10347000012040F27042C4F202029142079022D031
:10348000FFE70F980168012040F28842C4F202026F
:103490009142079017D0FFE70F980168012040F292
:1034A000A042C4F20202914207900CD0FFE70F98AD
:1034B00000684FF64831CBF6FD710844B0FA80F051
:1034C00040090790FFE70798C007002800F0138520
:1034D000FFE70E980F99C96D01F01F01C840000762
:1034E000002840F1B080FFE70F9800681021C4F277
:1034F0000201884200F08180FFE70F9800682821D0
:10350000C4F20201884278D0FFE70F98006840219A
:10351000C4F20201884270D0FFE70F98006858217A
:10352000C4F20201884268D0FFE70F98006870215A
:10353000C4F20201884260D0FFE70F98006888213A
:10354000C4F20201884258D0FFE70F980068A0211A
:10355000C4F20201884250D0FFE70F980068B821FA
:10356000C4F20201884248D0FFE70F98006840F299
:103570001041C4F2020188423FD0FFE70F98006873
:1035800040F22841C4F20201884236D0FFE70F988A
:10359000006840F24041C4F2020188422DD0FFE7AA
:1035A0000F98006840F25841C4F20201884224D0CA
:1035B000FFE70F98006840F27041C4F202018842B0
:1035C0001BD0FFE70F98006840F28841C4F2020167
:1035D000884212D0FFE70F98006840F2A041C4F281
:1035E0000201884209D0FFE70F98006840F2B84115
:1035F000C4F20201884207D1FFE70F980068006813
:1036000000F00400069006E00F980068006800F0E3
:1036100008000690FFE70698A0B1FFE70F98016841
:10362000086820F0040008600F98C06D00F01F01CA
:1036300008208840099988600F99486D40F0010082
:103640004865FFE7FFE70E980F99C96D01F01F016C
:10365000C840C007002800F0A980FFE70F98006865
:103660001021C4F20201884200F08180FFE70F9828
:1036700000682821C4F20201884278D0FFE70F9841
:1036800000684021C4F20201884270D0FFE70F9821
:1036900000685821C4F20201884268D0FFE70F9801
:1036A00000687021C4F20201884260D0FFE70F98E1
:1036B00000688821C4F20201884258D0FFE70F98C1
:1036C0000068A021C4F20201884250D0FFE70F98A1
:1036D0000068B821C4F20201884248D0FFE70F9881
:1036E000006840F21041C4F2020188423FD0FFE777
:1036F0000F98006840F22841C4F20201884236D097
:10370000FFE70F98006840F24041C4F2020188428E
:103710002DD0FFE70F98006840F25841C4F2020133
:10372000884224D0FFE70F98006840F27041C4F24D
:10373000020188421BD0FFE70F98006840F28841E1
:10374000C4F20201884212D0FFE70F98006840F2ED
:10375000A041C4F20201884209D0FFE70F98006837
:1037600040F2B841C4F20201884207D1FFE70F9846
:103770000068406900F08000059005E00F9800683F
:10378000006800200590FFE7059870B1FFE70F98EB
:10379000C06D00F01F0101208840099988600F99D1
:1037A000486D40F002004865FFE7FFE70E980F996B
:1037B000C96D01F01F01C8404007002840F1A980F1
:1037C000FFE70F9800681021C4F20201884200F060
:1037D0008180FFE70F9800682821C4F20201884227
:1037E00078D0FFE70F9800684021C4F202018842B8
:1037F00070D0FFE70F9800685821C4F20201884298
:1038000068D0FFE70F9800687021C4F20201884277
:1038100060D0FFE70F9800688821C4F20201884257
:1038200058D0FFE70F980068A021C4F20201884237
:1038300050D0FFE70F980068B821C4F20201884217
:1038400048D0FFE70F98006840F21041C4F202012F
:1038500088423FD0FFE70F98006840F22841C4F249
:103860000201884236D0FFE70F98006840F24041DD
:10387000C4F2020188422DD0FFE70F98006840F2A1
:103880005841C4F20201884224D0FFE70F98006833
:1038900040F27041C4F2020188421BD0FFE70F984A
:1038A000006840F28841C4F20201884212D0FFE76A
:1038B0000F98006840F2A041C4F20201884209D08A
:1038C000FFE70F98006840F2B841C4F20201884255
:1038D00007D1FFE70F980068006800F0020004902D
:1038E00005E00F980068006800200490FFE7049846
:1038F00070B1FFE70F98C06D00F01F0104208840F1
:10390000099988600F99486D40F004004865FFE709
:10391000FFE70E980F99C96D01F01F01C840C0065E
:10392000002840F1DE80FFE70F9800681021C4F204
:103930000201884200F08180FFE70F98006828218B
:10394000C4F20201884278D0FFE70F980068402156
:10395000C4F20201884270D0FFE70F980068582136
:10396000C4F20201884268D0FFE70F980068702116
:10397000C4F20201884260D0FFE70F9800688821F6
:10398000C4F20201884258D0FFE70F980068A021D6
:10399000C4F20201884250D0FFE70F980068B821B6
:1039A000C4F20201884248D0FFE70F98006840F255
:1039B0001041C4F2020188423FD0FFE70F9800682F
:1039C00040F22841C4F20201884236D0FFE70F9846
:1039D000006840F24041C4F2020188422DD0FFE766
:1039E0000F98006840F25841C4F20201884224D086
:1039F000FFE70F98006840F27041C4F2020188426C
:103A00001BD0FFE70F98006840F28841C4F2020122
:103A1000884212D0FFE70F98006840F2A041C4F23C
:103A20000201884209D0FFE70F98006840F2B841D0
:103A3000C4F20201884207D1FFE70F9800680068CE
:103A400000F00800039006E00F980068006800F09E
:103A500004000390FFE70398002841D0FFE70F9888
:103A6000C06D00F01F0110208840099988600F98F0
:103A700000680068400300281AD5FFE70F98006827
:103A800000680003002809D4FFE70F98006C20B1FC
:103A9000FFE70F98016C8847FFE708E00F98806CFC
:103AA00020B1FFE70F98816C8847FFE7FFE716E03A
:103AB0000F9800680068C005002807D4FFE70F983A
:103AC0000168086820F008000860FFE70F98006CA4
:103AD00020B1FFE70F98016C8847FFE7FFE7FFE79A
:103AE000FFE70E980F99C96D01F01F01C8408006CD
:103AF000002840F12681FFE70F9800681021C4F2EA
:103B00000201884200F08180FFE70F9800682821B9
:103B1000C4F20201884278D0FFE70F980068402184
:103B2000C4F20201884270D0FFE70F980068582164
:103B3000C4F20201884268D0FFE70F980068702144
:103B4000C4F20201884260D0FFE70F980068882124
:103B5000C4F20201884258D0FFE70F980068A02104
:103B6000C4F20201884250D0FFE70F980068B821E4
:103B7000C4F20201884248D0FFE70F98006840F283
:103B80001041C4F2020188423FD0FFE70F9800685D
:103B900040F22841C4F20201884236D0FFE70F9874
:103BA000006840F24041C4F2020188422DD0FFE794
:103BB0000F98006840F25841C4F20201884224D0B4
:103BC000FFE70F98006840F27041C4F2020188429A
:103BD0001BD0FFE70F98006840F28841C4F2020151
:103BE000884212D0FFE70F98006840F2A041C4F26B
:103BF0000201884209D0FFE70F98006840F2B841FF
:103C0000C4F20201884207D1FFE70F9800680068FC
:103C100000F01000029006E00F980068006800F0C5
:103C200002000290FFE70298002800F08980FFE779
:103C30000F98C06D00F01F0120208840099988600E
:103C40000F9890F83500042837D1FFE70F980168E6
:103C5000086820F0160008600F980168486920F095
:103C6000800048610F98006C20B9FFE70F98806CC6
:103C700038B1FFE70F980168086820F00800086075
:103C8000FFE70F98C06D00F01F013F2088400999A1
:103C900088600F99012081F83500FFE70F99002017
:103CA00081F83400FFE70F98006D20B1FFE70F980F
:103CB000016D8847FFE700F019BC0F9800680068A5
:103CC000400300281AD5FFE70F980068006800033A
:103CD000002809D5FFE70F98406C20B1FFE70F9847
:103CE000416C8847FFE708E00F98C06B20B1FFE701
:103CF0000F98C16B8847FFE7FFE720E00F98006847
:103D00000068C005002811D4FFE70F980168086813
:103D100020F0100008600F99012081F83500FFE7BE
:103D20000F99002081F83400FFE7FFE70F98C06B80
:103D300020B1FFE70F98C16B8847FFE7FFE7FFE778
:103D4000FFE70F98406D002800F0D480FFE70F9840
:103D5000406DC007002800F0C480FFE70F990420E1
:103D600081F835000F9800681021C4F202018842E2
:103D700000F08180FFE70F9800682821C4F202015B
:103D8000884278D0FFE70F9800684021C4F2020112
:103D9000884270D0FFE70F9800685821C4F20201F2
:103DA000884268D0FFE70F9800687021C4F20201D2
:103DB000884260D0FFE70F9800688821C4F20201B2
:103DC000884258D0FFE70F980068A021C4F2020192
:103DD000884250D0FFE70F980068B821C4F2020172
:103DE000884248D0FFE70F98006840F21041C4F2C3
:103DF000020188423FD0FFE70F98006840F2284157
:103E0000C4F20201884236D0FFE70F98006840F202
:103E10004041C4F2020188422DD0FFE70F980068AC
:103E200040F25841C4F20201884224D0FFE70F98C3
:103E3000006840F27041C4F2020188421BD0FFE7E3
:103E40000F98006840F28841C4F20201884212D003
:103E5000FFE70F98006840F2A041C4F202018842D7
:103E600009D0FFE70F98006840F2B841C4F20201A0
:103E7000884207D1FFE70F980168086820F0010029
:103E8000086006E00F980168086820F001000860EB
:103E9000FFE7FFE70B9801300B900A99884201D9A0
:103EA000FFE707E0FFE70F9800680068C0070028F9
:103EB000F0D1FFE70F9800680068C00728B1FFE75E
:103EC0000F99032081F8350004E00F99012081F853
:103ED0003500FFE7FFE70F99002081F83400FFE786
:103EE000FFE70F98C06C20B1FFE70F98C16C8847BF
:103EF000FFE7FFE7FAE20F980168012045F2084268
:103F0000C5F60202914201904ED0FFE70F9801687A
:103F1000012045F21C42C5F602029142019043D0B5
:103F2000FFE70F980168012045F23042C5F6020212
:103F30009142019038D0FFE70F980168012045F2C7
:103F40004442C5F60202914201902DD0FFE70F983E
:103F50000168012045F25842C5F6020291420190E3
:103F600022D0FFE70F980168012045F26C42C5F6A8
:103F700002029142019017D0FFE70F9801680120DB
:103F800045F28042C5F60202914201900CD0FFE753
:103F90000F9800684AF66C31CAF2FD710844B0FA15
:103FA00080F040090190FFE70198C007002800F069
:103FB0009B82FFE70F98006800680C900D980F999E
:103FC000C96D01F01F01C8404007002840F1D780AB
:103FD000FFE79DF830004007002840F1D080FFE760
:103FE0000F98C06D00F01F010420884008994860B8
:103FF0009DF831000006002818D5FFE79DF8320033
:10400000C00748B1FFE70F98806C20B1FFE70F9819
:10401000816C8847FFE708E00F98006C20B1FFE74C
:104020000F98016C8847FFE7FFE7A7E09DF8300095
:104030008006002800F19980FFE70F9800681021A2
:10404000C4F20201884200F08180FFE70F98006807
:104050002821C4F20201884278D0FFE70F98006857
:104060004021C4F20201884270D0FFE70F98006837
:104070005821C4F20201884268D0FFE70F98006817
:104080007021C4F20201884260D0FFE70F980068F7
:104090008821C4F20201884258D0FFE70F980068D7
:1040A000A021C4F20201884250D0FFE70F980068B7
:1040B000B821C4F20201884248D0FFE70F98006897
:1040C00040F21041C4F2020188423FD0FFE70F984E
:1040D000006840F22841C4F20201884236D0FFE76E
:1040E0000F98006840F24041C4F2020188422DD08E
:1040F000FFE70F98006840F25841C4F2020188427D
:1041000024D0FFE70F98006840F27041C4F202012A
:1041100088421BD0FFE70F98006840F28841C4F244
:104120000201884212D0FFE70F98006840F2A041D8
:10413000C4F20201884209D0FFE70F98006840F2FC
:10414000B841C4F20201884207D1FFE70F98016825
:10415000086820F00800086006E00F980168086809
:1041600020F004000860FFE7FFE70F98006C20B123
:10417000FFE70F98016C8847FFE7FFE7B3E10D9871
:104180000F99C96D01F01F01C8408007002840F158
:10419000E180FFE79DF830008007002840F1DA80D9
:1041A000FFE70F98C06D00F01F01022088400899BA
:1041B00048609DF831000006002818D5FFE79DF8FB
:1041C0003200C00748B9FFE70F98406C20B1FFE705
:1041D0000F98416C8847FFE708E00F98C06B20B14B
:1041E000FFE70F98C16B8847FFE7FFE7B1E09DF855
:1041F00030008006002800F1A380FFE70F980068D8
:104200001021C4F20201884200F08180FFE70F987C
:1042100000682821C4F20201884278D0FFE70F9895
:1042200000684021C4F20201884270D0FFE70F9875
:1042300000685821C4F20201884268D0FFE70F9855
:1042400000687021C4F20201884260D0FFE70F9835
:1042500000688821C4F20201884258D0FFE70F9815
:104260000068A021C4F20201884250D0FFE70F98F5
:104270000068B821C4F20201884248D0FFE70F98D5
:10428000006840F21041C4F2020188423FD0FFE7CB
:104290000F98006840F22841C4F20201884236D0EB
:1042A000FFE70F98006840F24041C4F202018842E3
:1042B0002DD0FFE70F98006840F25841C4F2020188
:1042C000884224D0FFE70F98006840F27041C4F2A2
:1042D000020188421BD0FFE70F98006840F2884136
:1042E000C4F20201884212D0FFE70F98006840F242
:1042F000A041C4F20201884209D0FFE70F9800688C
:1043000040F2B841C4F20201884207D1FFE70F989A
:104310000168086820F01400086006E00F98016842
:10432000086820F00A000860FFE70F99012081F873
:104330003500FFE70F99002081F83400FFE7FFE721
:104340000F98C06B20B1FFE70F98C16B8847FFE75C
:10435000FFE7C7E00D980F99C96D01F01F01C84034
:104360000007002840F1BC80FFE79DF830000007FF
:10437000002840F1B580FFE70F9800681021C4F2D3
:104380000201884200F08180FFE70F980068282131
:10439000C4F20201884278D0FFE70F9800684021FC
:1043A000C4F20201884270D0FFE70F9800685821DC
:1043B000C4F20201884268D0FFE70F9800687021BC
:1043C000C4F20201884260D0FFE70F98006888219C
:1043D000C4F20201884258D0FFE70F980068A0217C
:1043E000C4F20201884250D0FFE70F980068B8215C
:1043F000C4F20201884248D0FFE70F98006840F2FB
:104400001041C4F2020188423FD0FFE70F980068D4
:1044100040F22841C4F20201884236D0FFE70F98EB
:10442000006840F24041C4F2020188422DD0FFE70B
:104430000F98006840F25841C4F20201884224D02B
:10444000FFE70F98006840F27041C4F20201884211
:104450001BD0FFE70F98006840F28841C4F20201C8
:10446000884212D0FFE70F98006840F2A041C4F2E2
:104470000201884209D0FFE70F98006840F2B84176
:10448000C4F20201884207D1FFE70F98016808686B
:1044900020F01C00086006E00F980168086820F012
:1044A0000E000860FFE70F98C06D00F01F010120AB
:1044B00000FA01F1089A51600F9948650F9981F847
:1044C0003500FFE70F99002081F83400FFE70F98CF
:1044D000C06C20B1FFE70F98C16C8847FFE700E090
:1044E000FFE7FFE7FFE700E0FFE7FFE710B080BD71
:1044F00010B58EB00C9002F09FFC0A900C9828B971
:10450000FFE701208DF8370000F09EBC0C98016891
:1045100001201022C4F202029142079000F0A38011
:10452000FFE70C98016801202822C4F202029142A0
:10453000079000F09880FFE70C9801680120402266
:10454000C4F202029142079000F08D80FFE70C98C0
:10455000016801205822C4F202029142079000F043
:104560008280FFE70C98016801207022C4F20202E9
:104570009142079077D0FFE70C98016801208822CC
:10458000C4F20202914207906DD0FFE70C980168D7
:104590000120A022C4F202029142079063D0FFE7FB
:1045A0000C9801680120B822C4F2020291420790DF
:1045B00059D0FFE70C980168012040F21042C4F284
:1045C0000202914207904ED0FFE70C98016801204B
:1045D00040F22842C4F202029142079043D0FFE722
:1045E0000C980168012040F24042C4F2020291425C
:1045F000079038D0FFE70C980168012040F258423C
:10460000C4F20202914207902DD0FFE70C98016896
:10461000012040F27042C4F202029142079022D07F
:10462000FFE70C980168012040F28842C4F20202C0
:104630009142079017D0FFE70C980168012040F2E3
:10464000A042C4F20202914207900CD0FFE70C98FE
:1046500000684FF64831CBF6FD710844B0FA80F09F
:1046600040090790FFE70798C007002800F078810D
:10467000FFE70C98406A08B1FFE7FFE70C990220BA
:1046800081F83500FFE70C99002081F83400FFE73E
:104690000C9800681021C4F20201884200F0818069
:1046A000FFE70C9800682821C4F20201884278D004
:1046B000FFE70C9800684021C4F20201884270D0E4
:1046C000FFE70C9800685821C4F20201884268D0C4
:1046D000FFE70C9800687021C4F20201884260D0A4
:1046E000FFE70C9800688821C4F20201884258D084
:1046F000FFE70C980068A021C4F20201884250D064
:10470000FFE70C980068B821C4F20201884248D043
:10471000FFE70C98006840F21041C4F202018842A1
:104720003FD0FFE70C98006840F22841C4F2020134
:10473000884236D0FFE70C98006840F24041C4F24E
:10474000020188422DD0FFE70C98006840F25841E2
:10475000C4F20201884224D0FFE70C98006840F2BE
:104760007041C4F2020188421BD0FFE70C98006838
:1047700040F28841C4F20201884212D0FFE70C984F
:10478000006840F2A041C4F20201884209D0FFE76C
:104790000C98006840F2B841C4F20201884207D187
:1047A000FFE70C980168086820F00100086006E047
:1047B0000C980168086820F001000860FFE7FFE737
:1047C0000C9800680068C00798B1FFE702F034FB5E
:1047D0000A99401A06280BD3FFE70C992020486558
:1047E0000C99032081F8350001208DF837002BE368
:1047F000E6E70C98006800680B900B9848F23F01C0
:10480000CFF6106108400B900C998868D1F80CC065
:104810000B694A6940EA0C00184310438A69104347
:10482000CA691043096A01430B9808430B900C981E
:10483000406A042808D1FFE70C99C86A096B014354
:104840000B9808430B90FFE70C984068292807D382
:10485000FFE70C98416801202F29069036D3FFE727
:104860000C9840683F2807D3FFE70C984168012067
:10487000432906902AD3FFE70C984068472807D3BE
:10488000FFE70C9841680120492906901ED3FFE7F5
:104890000C9840684F2807D3FFE70C984168012027
:1048A0005329069012D3FFE70C9841680020742921
:1048B000059008D3FFE70C9841680020782938BF9D
:1048C00001200590FFE705980690FFE70698C007CE
:1048D00028B1FFE70B9840F480100B90FFE70B988E
:1048E0000C99096808600C98006840690B900B9857
:1048F00020F007000B900C98416A0B9808430B902E
:104900000C98406A04281AD1FFE70C98816A0B982A
:1049100008430B900C98C06A80B1FFE70C98FCF735
:104920003FFE50B1FFE70C99402048650C990120EB
:1049300081F835008DF8370086E2FFE7FFE70B9836
:104940000C99096848610C98FCF7EEFB09900C98EB
:10495000C06D00F01F013F2088400999886026E162
:104960000C980168012045F20842C5F60202914206
:1049700004904ED0FFE70C980168012045F21C42DC
:10498000C5F602029142049043D0FFE70C980168FB
:10499000012045F23042C5F602029142049038D01F
:1049A000FFE70C980168012045F24442C5F6020277
:1049B000914204902DD0FFE70C980168012045F248
:1049C0005842C5F602029142049022D0FFE70C98AB
:1049D0000168012045F26C42C5F602029142049042
:1049E00017D0FFE70C980168012045F28042C5F618
:1049F0000202914204900CD0FFE70C9800684AF63E
:104A00006C31CAF2FD710844B0FA80F0400904909C
:104A1000FFE70498C007002800F0BD80FFE70C986E
:104A20000168012045F20842C5F602029142039056
:104A30004ED0FFE70C980168012045F21C42C5F6F4
:104A400002029142039043D0FFE70C9801680120D5
:104A500045F23042C5F602029142039038D0FFE79A
:104A60000C980168012045F24442C5F602029142C9
:104A700003902DD0FFE70C980168012045F25842C1
:104A8000C5F602029142039022D0FFE70C9801681C
:104A9000012045F26C42C5F602029142039017D004
:104AA000FFE70C980168012045F28042C5F602023A
:104AB000914203900CD0FFE70C9800684AF66C31E5
:104AC000CAF2FD710844B0FA80F040090390FFE794
:104AD0000398C00708B1FFE7FFE70C99022081F8AF
:104AE0003500FFE70C99002081F83400FFE70C98AF
:104AF000006800680B900B986FF310100B900C98E7
:104B00008068402803D1FFE71020029008E00C984D
:104B100080688038B0FA80F0400980030290FFE797
:104B200002980C99CA680B69D1F814C0D1F818E042
:104B3000CC694EEA040E4CEA0E0C43EA0C031A430D
:104B400040EAD200096A40EA11110B9808430B9021
:104B50000B980C99096808600C9908684AF6F832B5
:104B6000CAF2FD7210444CF6CD42CCF6CC42A0FB0A
:104B700002026FF0030000EA9200C8650C98FCF78F
:104B8000D3FA08900C98C06D00F01F0101208840F6
:104B9000089948600AE00C99402048650C99032068
:104BA00081F8350001208DF837004DE1FFE70C98C2
:104BB000016801201022C4F202029142019000F02B
:104BC0000381FFE70C98016801202822C4F2020249
:104BD0009142019000F0F880FFE70C9801680120F5
:104BE0004022C4F202029142019000F0ED80FFE702
:104BF0000C98016801205822C4F2020291420190EF
:104C000000F0E280FFE70C98016801207022C4F2F6
:104C100002029142019000F0D780FFE70C980168F2
:104C200001208822C4F202029142019000F0CC805F
:104C3000FFE70C9801680120A022C4F20202914211
:104C4000019000F0C180FFE70C9801680120B822B4
:104C5000C4F202029142019000F0B680FFE70C9886
:104C60000168012040F21042C4F202029142019018
:104C700000F0AA80FFE70C980168012040F228426A
:104C8000C4F202029142019000F09E80FFE70C986E
:104C90000168012040F24042C4F2020291420190B8
:104CA00000F09280FFE70C980168012040F2584222
:104CB000C4F202029142019000F08680FFE70C9856
:104CC0000168012040F27042C4F202029142019058
:104CD0007AD0FFE70C980168012040F28842C4F2C4
:104CE0000202914201906FD0FFE70C980168012009
:104CF00040F2A042C4F202029142019064D0FFE768
:104D00000C980168012040F2B842C4F202029142BC
:104D1000019059D0FFE70C980168012045F2084244
:104D2000C5F60202914201904ED0FFE70C9801684F
:104D3000012045F21C42C5F602029142019043D087
:104D4000FFE70C980168012045F23042C5F60202E7
:104D50009142019038D0FFE70C980168012045F29C
:104D60004442C5F60202914201902DD0FFE70C9813
:104D70000168012045F25842C5F6020291420190B5
:104D800022D0FFE70C980168012045F26C42C5F67D
:104D900002029142019017D0FFE70C9801680120B0
:104DA00045F28042C5F60202914201900CD0FFE725
:104DB0000C9800684AF66C31CAF2FD710844B0FAEA
:104DC00080F040090190FFE70198C00790B3FFE72A
:104DD0000C98FCF791FA0C988068802804D1FFE7C2
:104DE0000C9900204860FFE70C990879096E08606B
:104DF0000C98416E806E48600C98406888B1FFE75F
:104E00000C98406808280CD8FFE70C98FCF730FB9A
:104E10000C98C16E002008600C98016F406F4860CC
:104E200007E00C990020C8660C9908670C99486740
:104E3000FFE7FFE70C99002048650C9A012182F8F2
:104E400035108DF83700FFE79DF837000EB010BD24
:104E500080B588B0069005910492039300208DF8E8
:104E60000B00069820B9FFE701208DF81F006CE3C6
:104E7000FFE7069890F83400012804D1FFE70220EC
:104E80008DF81F0061E30699012081F83400FFE7E7
:104E9000FFE7069890F83500012840F04383FFE7CC
:104EA0000699022081F83500069900204865069889
:104EB00000681021C4F20201884200F08180FFE7FF
:104EC000069800682821C4F20201884278D0FFE7E2
:104ED000069800684021C4F20201884270D0FFE7C2
:104EE000069800685821C4F20201884268D0FFE7A2
:104EF000069800687021C4F20201884260D0FFE782
:104F0000069800688821C4F20201884258D0FFE761
:104F100006980068A021C4F20201884250D0FFE741
:104F200006980068B821C4F20201884248D0FFE721
:104F30000698006840F21041C4F2020188423FD056
:104F4000FFE70698006840F22841C4F20201884257
:104F500036D0FFE70698006840F24041C4F20201F3
:104F600088422DD0FFE70698006840F25841C4F20D
:104F70000201884224D0FFE70698006840F27041A1
:104F8000C4F2020188421BD0FFE70698006840F295
:104F90008841C4F20201884212D0FFE706980068F7
:104FA00040F2A041C4F20201884209D0FFE706980E
:104FB000006840F2B841C4F20201884207D1FFE71D
:104FC00006980168086820F00100086006E006986D
:104FD0000168086820F001000860FFE7069805995D
:104FE000049A039BFCF754FB0698016801201022E9
:104FF000C4F202029142019000F0A380FFE70698FC
:10500000016801202822C4F202029142019000F0BE
:105010009880FFE70698016801204022C4F202024E
:105020009142019000F08D80FFE706980168012011
:105030005822C4F202029142019000F08280FFE700
:105040000698016801207022C4F202029142019088
:1050500077D0FFE70698016801208822C4F2020297
:10506000914201906DD0FFE7069801680120A022CF
:10507000C4F202029142019063D0FFE706980168F2
:105080000120B822C4F202029142019059D0FFE7F8
:1050900006980168012040F21042C4F202029142D7
:1050A00001904ED0FFE706980168012040F22842A7
:1050B000C4F202029142019043D0FFE706980168D2
:1050C000012040F24042C4F202029142019038D0E5
:1050D000FFE706980168012040F25842C4F202023C
:1050E000914201902DD0FFE706980168012040F21F
:1050F0007042C4F202029142019022D0FFE706986A
:105100000168012040F28842C4F2020291420190FB
:1051100017D0FFE706980168012040F2A042C4F2D0
:105120000202914201900CD0FFE7069800684FF60A
:105130004831CBF6FD710844B0FA80F04009019087
:10514000FFE70198C007A8B1FFE70698006800686C
:105150000B2161F344000699096808600698006C09
:1051600038B1FFE706980168086840F00800086059
:10517000FFE714E0069800680068052161F343002A
:105180000699096808600698006C38B1FFE7069830
:105190000168086840F004000860FFE7FFE7069830
:1051A000016801201022C4F202029142009000F036
:1051B0000381FFE70698016801202822C4F2020259
:1051C0009142009000F0F880FFE706980168012006
:1051D0004022C4F202029142009000F0ED80FFE70D
:1051E0000698016801205822C4F202029142009000
:1051F00000F0E280FFE70698016801207022C4F207
:1052000002029142009000F0D780FFE70698016803
:1052100001208822C4F202029142009000F0CC806A
:10522000FFE7069801680120A022C4F20202914221
:10523000009000F0C180FFE7069801680120B822C5
:10524000C4F202029142009000F0B680FFE7069897
:105250000168012040F21042C4F202029142009023
:1052600000F0AA80FFE706980168012040F228427A
:10527000C4F202029142009000F09E80FFE706987F
:105280000168012040F24042C4F2020291420090C3
:1052900000F09280FFE706980168012040F2584232
:1052A000C4F202029142009000F08680FFE7069867
:1052B0000168012040F27042C4F202029142009063
:1052C0007AD0FFE706980168012040F28842C4F2D4
:1052D0000202914200906FD0FFE70698016801201A
:1052E00040F2A042C4F202029142009064D0FFE773
:1052F00006980168012040F2B842C4F202029142CD
:10530000009059D0FFE706980168012045F2084255
:10531000C5F60202914200904ED0FFE70698016860
:10532000012045F21C42C5F602029142009043D092
:10533000FFE706980168012045F23042C5F60202F7
:105340009142009038D0FFE706980168012045F2AD
:105350004442C5F60202914200902DD0FFE7069824
:105360000168012045F25842C5F6020291420090C0
:1053700022D0FFE706980168012045F26C42C5F68D
:1053800002029142009017D0FFE7069801680120C1
:1053900045F28042C5F60202914200900CD0FFE730
:1053A000069800684AF66C31CAF2FD710844B0FAFA
:1053B00080F040090090FFE70098C007D0B1FFE7F8
:1053C0000698006E0068C003002807D5FFE706981E
:1053D000016E086840F480700860FFE70698C06EB0
:1053E00038B1FFE70698C16E086840F48070086025
:1053F000FFE7FFE7069800681021C4F20201884227
:1054000000F08180FFE7069800682821C4F20201BD
:10541000884278D0FFE7069800684021C4F2020174
:10542000884270D0FFE7069800685821C4F2020154
:10543000884268D0FFE7069800687021C4F2020134
:10544000884260D0FFE7069800688821C4F2020114
:10545000884258D0FFE706980068A021C4F20201F4
:10546000884250D0FFE706980068B821C4F20201D4
:10547000884248D0FFE70698006840F21041C4F225
:10548000020188423FD0FFE70698006840F22841B9
:10549000C4F20201884236D0FFE70698006840F265
:1054A0004041C4F2020188422DD0FFE7069800680F
:1054B00040F25841C4F20201884224D0FFE7069826
:1054C000006840F27041C4F2020188421BD0FFE73D
:1054D0000698006840F28841C4F20201884212D066
:1054E000FFE70698006840F2A041C4F2020188423A
:1054F00009D0FFE70698006840F2B841C4F2020103
:10550000884207D1FFE706980168086840F001006B
:10551000086006E006980168086840F0010008602D
:10552000FFE70DE006994FF400604865FFE7069934
:10553000002081F83400FFE701208DF80B00FFE721
:105540009DF80B008DF81F00FFE79DF81F0008B0C5
:1055500080BD00000000000085B003900291019220
:10556000039890F898008DF803009DF80300012837
:1055700005D0FFE79DF8030002285DD1FFE7029800
:1055800003990968896D084207D1FFE7039801680C
:10559000C86D40F00100C86515E0029803990968DC
:1055A000896D08400299884207D1FFE70398016896
:1055B000C86D40F00200C86504E00398016803204C
:1055C000C865FFE7FFE79DF809008007002809D5B7
:1055D000FFE7019A03980168D1F8E0001043C1F891
:1055E000E000FFE79DF809004007002809D5FFE724
:1055F000019A03980168D1F8E4001043C1F8E4006F
:10560000FFE7FFE702984FF6FF71C3F6CF7100EA9C
:10561000010203980168486D10434865029A4AF6F2
:105620001401C4F20001086840EA92700860FFE7C4
:1056300000208DF813000AE00399D1F89C0040F097
:105640000200C1F89C0001208DF81300FFE79DF8CF
:10565000130005B07047000080B586B00490039138
:1056600002920398406808B9FFE700E0FFE704985A
:1056700090F89800022845D1FFE704980068D0F818
:10568000C00010F07C5F0BD1FFE70499D1F89C00BB
:1056900040F02000C1F89C0001208DF817003CE08C
:1056A00004980068D0F8C400800200280BD5FFE7FA
:1056B0000499D1F89C0040F40070C1F89C000120CE
:1056C0008DF8170029E004980068D0F8C400C0F3F2
:1056D0000440019004980399029A019BFCF75CFC3A
:1056E0000199012000FA01F1049A1268C2F8D01061
:1056F000019988400499C1F89400FFE700208DF8D3
:1057000017000AE00499D1F89C0040F00800C1F8A5
:105710009C0001208DF81700FFE79DF8170006B0E8
:1057200080BD00000000000082B00190009102B036
:10573000704700000000000087B0059004910598B4
:1057400090F898008DF803009DF80300012805D01B
:10575000FFE79DF8030002286AD1FFE70498C068BC
:10576000072801D1FFE7FFE70498006878BBFFE74F
:105770000498C068072801D0FFE7FFE70498C068D5
:1057800007280CD1FFE7049A10699169D2690004D7
:1057900040EA0220084340F0605003900CE0049976
:1057A0008868CB680A694969800740EAC36040EAB3
:1057B000024008430390FFE70598C06E04994968CA
:1057C00000EB810001900398019908602CE0049897
:1057D000C068072801D0FFE7FFE70498C1680069A7
:1057E00040EA417003900498C068072804D1FFE79D
:1057F00004988069029006E004988168406940EA54
:1058000081700290FFE70598006F0499496800EBEA
:10581000C10001900398019908600198043001903B
:10582000029801990860FFE700208DF81B000AE04C
:105830000599D1F89C0040F00200C1F89C000120BD
:105840008DF81B00FFE79DF81B0007B070470000B4
:1058500085B0DDF814C00390029101920093039883
:1058600090F89800012812D1FFE7029800010199F1
:1058700040EA8100009940EA4100059908430399F4
:105880000968C1F8800000208DF813000AE0039930
:10589000D1F89C0040F00400C1F89C0001208DF874
:1058A0001300FFE79DF8130005B0704700000000EB
:1058B00081B0009001B0704782B00190009102B0B9
:1058C00070470000000000008AB00890079106921F
:1058D000059300200190089890F898008DF8030037
:1058E0009DF80300022840F06881FFE707984028F0
:1058F00057D1FFE708980068D0F8A00010F4FE0F19
:105900000BD1FFE70899D1F89C0040F02000C1F8C6
:105910009C0001208DF827005AE108980068D0F813
:10592000A400400658B9FFE70899D1F89C0040F45C
:105930008070C1F89C0001208DF8270048E108988C
:105940000068D0F8A400C0F3052001900898006812
:10595000D0F8A40000F080710120B0EB116F16D1D7
:10596000FFE708980068D0F8A0100120B0EBD17FC5
:105970000CD1FFE70198013008990968D1F8A0100F
:1059800001F4FE0100EA11400190FFE7FFE70898EB
:10599000426C406F0199514300EB81000490FFE796
:1059A00076E00798412857D1FFE708980068D0F8BB
:1059B000B00010F4FE0F0BD1FFE70899D1F89C005E
:1059C00040F02000C1F89C0001208DF82700FFE086
:1059D00008980068D0F8B400400658B9FFE7089965
:1059E000D1F89C0040F48070C1F89C0001208DF833
:1059F0002700EDE008980068D0F8B400C0F3052057
:105A0000019008980068D0F8B40000F0807101207F
:105A1000B0EB116F16D1FFE708980068D0F8B0100E
:105A20000120B0EBD17F0CD1FFE70198013008993C
:105A30000968D1F8B01001F4FE0100EA11400190AC
:105A4000FFE7FFE70898C26C806F0199514300EBB4
:105A500081000490FFE71AE007980899096D8842D1
:105A60000BD3FFE70899D1F89C0040F02000C1F863
:105A70009C0001208DF82700AAE00898426DC06FB5
:105A80000799514300EB81000490FFE7FFE7FFE730
:105A90000498006800F080400699486006984068C5
:105AA00038B9FFE704980068C0F38A400699086097
:105AB00006E00498006820F0604006990860FFE75F
:105AC0000498006800F00050069988600498006807
:105AD00000F000400699086104980430049004988E
